:10000000F8FF002011040000FDAF0000FDAF00006C
:10001000FDAF0000FDAF0000FDAF0000FDAF000030
:10002000FDAF0000FDAF0000FDAF0000FDAF000020
:10003000FDAF0000FDAF0000FDAF0000FDAF000010
:10004000FDAF0000FDAF0000FDAF0000FDAF000000
:10040000FFFFFFFFFFFFFFFFFFFFFFFFFEFFFFFFFD
:1004100062B616F0B1FFFEE730B40FF240131B884E
:1004200081B0002AADF8003000F0948000ABD40712
:100430002ED511F8014BE509ED5C00F8015BA5092B
:1004400005F00105ED5C00F8015B650905F00105AB
:10045000ED5C00F8015B250905F00105ED5C00F895
:10046000015BE50805F00105ED5C00F8015BA508FE
:1004700005F00105ED5C00F8015B650805F001057C
:1004800004F00104ED5C00F8015BE45C00F8014B52
:1004900052085FD011F8014BE509ED5C00F8015BF3
:1004A000A50905F00105ED5C00F8015B650905F0A3
:1004B0000105ED5C00F8015B250905F00105ED5C27
:1004C00000F8015BE50805F00105ED5C00F8015B53
:1004D000A50805F00105ED5C00F8015B650805F075
:1004E000010504F00104ED5C00F8015BE45C00F838
:1004F000014B11F8014BE509ED5C00F8015BA50922
:1005000005F00105ED5C00F8015B650905F00105EA
:10051000ED5C00F8015B250905F00105ED5C00F8D4
:10052000015BE50805F00105ED5C00F8015BA5083D
:1005300005F00105ED5C00F8015B650805F00105BB
:1005400004F00104ED5C00F8015B521EE45C00F86D
:10055000014B9FD101B030BC70470000FF0000008C
:100560002DE9F04FDFF8408A012088F8450A4FF462
:10057000EC74002088F8470AA8F84A0AA8F84C0A40
:10058000024681B000262146404609F037FF324638
:10059000214608F5EC7009F031FF4FF4E87432465B
:1005A000214608F6742009F029FF3246214608F654
:1005B000444009F023FF3246214608F5B66009F0B1
:1005C0001DFF3246214608F5F06009F017FFDFF8FD
:1005D000881D88F8906588F8986588F8916588F88E
:1005E000926588F8936588F8996588F89A6588F81F
:1005F0009B6588F8946588F89C6588F8956588F807
:10060000966588F89D6588F89E65A8F8526AA8F8EE
:10061000546AA8F8566AA8F8586A0E8008F56C73F0
:10062000DFF8849DDFF8840DDFF8842D494608F259
:10063000A04608F6146708F6047C4FF01E0E00244E
:1006400020F8024B9F2421F8024B502422F8024B41
:10065000A02423F8024B26F8024B27F8024B2CF873
:10066000024B002420F8024B9F2421F8024B502417
:1006700022F8024BA02423F8024B26F8024B27F85D
:10068000024B2CF8024B002420F8024B9F2421F847
:10069000024B502422F8024BA02423F8024B26F8E8
:1006A000024B27F8024B2CF8024B002420F8024B97
:1006B0009F2421F8024B502422F8024BA02423F857
:1006C000024B26F8024B27F8024B2CF8024BBEF1E6
:1006D000010EB4D1772108F29E4208F28E53DFF862
:1006E000D46C4FF0FF37F2E2AEF1010E641E0FFA48
:1006F0008EFEBEF1010F08DB6578FF2D04BF257863
:10070000002DF1D1A2F800E008E0BEF1000F05D104
:10071000A2F800E002E0401C0CF1010C00B29F289E
:1007200008DA1CF8014CFF2C04BF9CF80040002C98
:10073000F1D118809F2804BF9F241C8076293BD1CB
:10074000B2F90200B3F90240204400EBD07040102F
:100750000FFA80FE0EEB0604A8F84E0A254602E0CA
:10076000AEF1010E6D1E0FFA8EFEBEF1010F0CDB15
:1007700095F801A0BAF1FF0F04BF95F800A0BAF1F7
:10078000000FEDD1A2F800E007E0BEF1000F04D1A8
:10079000A2F800E001E0401C641C00B29F2807DAC8
:1007A00014F8015CFF2D04BF2578002DF3D11880CB
:1007B0009F2804BF9F241C80762980F27D82B2F995
:1007C00002E070460546AC191BE06D1E2DB2002DEF
:1007D00020D414F801A9BAF1000F1AD06D1E2DB261
:1007E000002D17D414F801A9BAF1000F11D06D1E15
:1007F0002DB2002D0ED414F801A9BAF1000F08D0C3
:100800006D1E2DB2002D05D414F801A9BAF1000F08
:10081000DBD12846A8F8505AB8F9504A14F1010F14
:1008200002BF3578FF2D384604D0002C02BF347843
:10083000002C0020841901E0401C641C00B2A02898
:1008400017DA10F1010F08BF002011D050B19E2817
:1008500008DB14F8015C002D04BF2578FF2DEBD1D7
:10086000401E05E02578002D04BF6578FF2DE3D1FB
:100870001080B3F90240204682460AEB060525E0C7
:100880000AF1010A0FFA8AFABAF1A00F29DA15F86B
:1008900001BBBBF1000F23D00AF1010A0FFA8AFA5B
:1008A000BAF1A00F1DDA15F801BBBBF1000F17D08C
:1008B0000AF1010A0FFA8AFABAF1A00F11DA15F853
:1008C00001BBBBF1000F0BD00AF1010A0FFA8AFA43
:1008D000BAF1A00F05DA15F801BBBBF1000FCFD1BB
:1008E0005046A8F850AAB8F9505AA02D02BF96F861
:1008F0009FA0BAF1FF0FA02005D09F2D02BF96F850
:100900009F50002D9F20851901E0401E6D1E00B2F2
:1009100000281FD4A02808BF9F250ED09F280ED0E6
:1009200002280CDA95F800A0BAF1FF0F04BF95F881
:1009300001A0BAF1000FE8D1451C1D800AE095F82E
:1009400000A0BAF1000F04BF15F801ACBAF1FF0F17
:10095000DBD11880B2F90050A542BCBFB3F900400A
:10096000A645C0F2A98108EB4101A022A1F8B0235D
:10097000A1F8A024A8F8500A08F56C715FF00000F7
:1009800008F2A04231F9023BA02B04BF32F9023B2E
:10099000A02B00F0A381DFF8C01940B20880DFF877
:1009A000B809008888F8460A98F9463A782B4ADA56
:1009B000DFF8F81908EB4306C3F1780001EB4301B7
:1009C00006F56C7209EB430306F2A04610F003072C
:1009D00000F00F8032F8024B21F8024B36F8024B40
:1009E00023F8024B98F8464A641C88F8464A7F1E52
:1009F000F0D1800800F0278032F8027B21F8027BDA
:100A000036F8027B23F8027B32F8027B21F8027B66
:100A100036F8027B23F8027B32F8027B21F8027B56
:100A200036F8027B23F8027B32F8027B21F8027B46
:100A300036F8027B23F8027B98F8467A3F1D88F847
:100A4000467A401ED8D1DFF8640900F0B3FD48466D
:100A500000F0B0FD00F002FE98F99125002A40D088
:100A6000134658F82300002109F0F6FC05D308EBE3
:100A70008300406809F0F0FC01D288F8962558F808
:100A8000230009F0FBFC05D308EB8300406809F064
:100A9000F5FC26D202F10F019F20491C8B4220DA7F
:100AA000DFF8086906EB43035FF00401B3F9006067
:100AB0008642B8BF3046B3F902608642C8BF0646D8
:100AC000B3F90470B742C8BF3746B3F90600B8425D
:100AD000C8BF3846491E08330029E7D108B988F84D
:100AE000952598F99225002A3FD0134658F82300FF
:100AF000002109F0B1FC05D308EB8300406809F040
:100B0000ABFC01D288F8962558F8230009F0B6FC12
:100B100005D308EB8300406809F0B0FC25D202F150
:100B20000F019F20491C8B421FDADFF8806806EB1B
:100B300043030421B3F900608642B8BF3046B3F9DD
:100B400002608642C8BF0646B3F90470B742C8BF08
:100B50003746B3F90600B842C8BF3846491E0833C5
:100B60000029E7D108B988F8952598F99925002A30
:100B700040D008EB82030021D3F8D80109F07EFCB5
:100B800004D3D3F8DC0109F079FC01D288F89E2562
:100B900008EB8206D6F8D80109F05EFC04D3D6F83B
:100BA000DC0109F059FC25D202F10F010020491C9B
:100BB0008A421FDA09EB42035FF00401B3F90060D7
:100BC000B042B8BF3046B3F90260B042B8BF304659
:100BD000B3F90460B042B8BF3046B3F90660B04222
:100BE000B8BF3046491E08330029E7D19F2808BF07
:100BF00088F89D2598F99A25002A3FD008EB8203B2
:100C00000021D3F8D80109F039FC04D3D3F8DC0172
:100C100009F034FC01D288F89E2508EB8206D6F84C
:100C2000D80109F019FC04D3D6F8DC0109F014FC52
:100C300024D202F10F010020491C8A421EDA09EB7E
:100C400042030421B3F90060B042B8BF3046B3F9A3
:100C50000260B042B8BF3046B3F90460B042B8BFDA
:100C60003046B3F90660B042B8BF3046491E08337B
:100C70000029E7D19F2808BF88F89D25B8F94A1AAE
:100C8000DFF8A0095FF07302B0F90030B0F9087026
:100C9000FF1A47D530F9087CDE1B012E48DA30F9FF
:100CA000023CB0F90670521EFF1A6FD530F90A7C6B
:100CB000DE1B012E70DA72E0491EA03E9B1E921EC2
:100CC00049B200293FF556AE77297FF437ADB8F920
:100CD0004E0A86460EEB060C644608E531F9023BE7
:100CE000401CA02B04BF32F9023BA02B7FF453AE73
:100CF00031F9023B401CA02B04BF32F9023BA02B70
:100D00007FF449AE31F9023B401CA02B04BF32F9FD
:100D1000023BA02B7FF43FAE401C40B27828FFF688
:100D200031AE3CE6BBD130F9087CDE1B042EB6DBCD
:100D3000002BB4D00029B2D152B2D01EA8F84A0A72
:100D40005FF0730088F8460A09F2E600B8F94C1A19
:100D50006FF00202B0F90030B0F90860F61A012E07
:100D600050DB30F9086C9E1B53D498F8463A5B1E52
:100D700088F8463A30F9026CB0F90670BF1B012FB3
:100D800051DB30F90A7CF71B53D456E007D130F918
:100D90000A7CDE1B042E02DB0BB10029CCD030F91B
:100DA000043CB0F90470521EFF1A05D530F90C7CD2
:100DB000DE1B012E06DA08E007D130F90C7CDE1BC1
:100DC000042E02DB0BB10029B6D030F9063CB0F995
:100DD0000270521EFF1A05D530F90E7CDE1B012E63
:100DE00006DA08E007D130F90E7CDE1B042E02DBA8
:100DF0000BB10029A0D0521E083852B2102ABFF6FB
:100E000043AF9DE7002EB0D130F9086C9E1B96428F
:100E1000ABDA9F2BA9D00029A7D198F9460AC01EAA
:100E2000A8F84C0A43E047B930F90A7CF71B97420F
:100E300003DA9F2E01D00029EFD05B1E88F8463AD6
:100E400030F9046CB0F90470BF1B012F04DB30F9DA
:100E50000C7CF71B06D409E047B930F90C7CF71B72
:100E6000974203DA9F2E01D00029D6D05B1E88F866
:100E7000463A30F9066CB0F90270BF1B012F04DB53
:100E800030F90E7CF71B06D409E047B930F90E7C27
:100E9000F71B974203DA9F2E01D00029BDD05B1EBD
:100EA00088F8463A08385BB2102BBFF653AFDFF82C
:100EB00078773878FF2808D1DFF87007007810B10C
:100EC00006F0F0FF01E005F0FBF93878002802BFDA
:100ED000DFF85C070078FF2808D1DFF850070078BA
:100EE00010B105F0EDF901E006F0DCFF492009F052
:100EF0003EFB012836D13878FF2801BF98F9400A17
:100F0000012898F8450A01280ED1DFF82807DFF8F4
:100F1000281790F9000051F8200010B900F0E6FE03
:100F200020E001F0B7FE1DE03878002802BFDFF8AE
:100F30000C070078012815D198F9400A012804BF50
:100F400098F8450A01280DD1DFF8E806DFF8E81621
:100F500090F9000051F8200010B902F079FE01E08C
:100F600003F090FC04F0A4FA98F8450A012808BFA1
:100F700005F062F85FF0770088F8460A09F2EE01A2
:100F8000DFF8BC06DFF8BC26B0F90030B1F900602C
:100F9000002B0BD09F2E0FBF483306FA83F303EBD1
:100FA000D3735B1006E000BFE410FF1F9F2E02D03A
:100FB000A6F14803138098F8463A5B1E88F8463A33
:100FC00030F9026C31F9024C002E08D09F2C0FBF73
:100FD000483604FA86F606EBD676761003E09F2CA8
:100FE00003D0A4F1480622F8026C5B1E88F8463A4A
:100FF00030F9046C31F9044C002E08D09F2C0FBF3F
:10100000483604FA86F606EBD676761003E09F2C77
:1010100003D0A4F1480622F8046C5B1E88F8463A17
:1010200030F9066C31F9064C002E08D09F2C0FBF0A
:10103000483604FA86F606EBD676761003E09F2C47
:1010400003D0A4F1480622F8066C5B1E88F8463AE5
:10105000083A083908385BB2002B95D500F0ACF996
:10106000D8F8A055284609F0B7FA00B20128B8BF51
:101070004042DFF8D4653080002200242846114623
:1010800009F0EAF928BF85F000452846DFF8BC15CD
:1010900009F0F4F93CD298F8450A012840F038806C
:1010A00009F17800DFF8A81508F6C8134FF0070C0F
:1010B00033F902E9A64433F90249A6440488A21888
:1010C0000C88121B30F8024CA21831F8024C121B8B
:1010D00030F8044CA21831F8044C121B33F90249C1
:1010E000891F801F7444BCF1010CE1D110B209F0DA
:1010F00095FA054620B209F091FA0146284609F012
:10110000A7FADFF8501509F0B9F938BF012000D36C
:10111000022088F8420A98F8450A01281FBF98F96A
:10112000430A022898F9410A012840F03A818A4886
:10113000B0F900000F2808DB98F9430A02281CBF09
:1011400098F9410A012840F02C81D8F8D44123466F
:101150005FF0740508F5E872D2F800A02046514609
:1011600009F08CF938BF544605D35046194609F0AA
:1011700085F938BF534652F804AC6D1E20465146DF
:1011800009F07CF938BF544605D35046194609F09A
:1011900075F938BF534652F808AC6D1E20465146CB
:1011A00009F06CF938BF544605D35046194609F08A
:1011B00065F938BF53466D1E0C3A1E2DCCDA204619
:1011C000194609F0C3FAD8F8AC2304464FEA0203E3
:1011D0004FF0740A08F56A75D5F800B01046594604
:1011E00009F04CF938BF5A4605D35846194609F05C
:1011F00045F938BF5B4655F804BC1046594609F01E
:101200003DF9AAF1010A38BF5A4605D35846194696
:1012100009F034F938BF5B4655F808BC104659460A
:1012200009F02CF9AAF1010A38BF5A4605D35846ED
:10123000194609F023F938BF5B46AAF1010A0C3DB3
:10124000BAF11E0FC8DA1046194609F07FFA0546B2
:101250002046294609F07AFA002109F0FDF803D367
:101260002846214609F072FA014609F0E3FADFF850
:10127000E81309F0DFFA09F0AFF9308000B20A286C
:1012800009DA20464FF0804109F0F8F80BD32846E0
:1012900009F0F4F807D398F9430A02281CBF98F91B
:1012A000410A012810D13878FF280BD0387858B976
:1012B000DFF8B8090078002802BFDFF8B409007829
:1012C000002801D008F0C2FB2348B0F90000002834
:1012D00001BF98F99105002898F9990500284FD188
:1012E0009F21324AB2F900308B42B8BF1946B2F999
:1012F0000230401C8B42C8BF0B46B2F90410401CA0
:101300009942C8BF1946401C00B202F206023328B7
:10131000E8DBA9B300200021B9F900209142B8BF51
:101320001146B9F90220401C9142B8BF1146B9F9E3
:101330000420401C9142B8BF1146401C00B209F283
:1013400006093328E8DB9F291AD0B6F900001928CE
:1013500016DADFF8201901E0E624FF1F204609F025
:101360007BF803D9284609F077F809D800203080A7
:10137000DFF80419DFF804090160DFF804190FE051
:10138000D8F8A00509F028F900B20128B8BF4042FA
:101390003080DFF8F018DFF8E4080160DFF8E818C3
:1013A000416001B0BDE8F08F9C83FF1FAC82FF1F3E
:1013B0008C84FF1F0C82FF1F2DE9F04FDFF8CC0853
:1013C000DFF8CC480068D4F8A055DFF8C8B8C4F8F6
:1013D000A45581B00026009077270099584609F05F
:1013E000B5F9594609F04AF88046DFF8AC98DFF8BD
:1013F000ACA844D23AF917004F3809F00FF959F860
:10140000271009F017FA314609F080FA7F1E0646C8
:101410007FB2384609F002F90146404609F02EF83D
:101420002DD23AF917004F3809F0F8F859F827107B
:1014300009F000FA314609F069FA7F1E06467FB2CC
:10144000384609F0EBF80146404609F017F816D285
:101450003AF917004F3809F0E1F859F8271009F068
:10146000E9F9314609F052FA7F1E06467FB2384646
:1014700009F0D4F80146404609F000F8BAD30099C3
:10148000304609F0E5F80646294609F05FF9DFF82D
:10149000101808F0E1FF04D86C48294609F036FA24
:1014A0000646DFF800783046294609F04FF93946FC
:1014B00008F0E4FF03D2284609F028FA0646304631
:1014C000DFF8E41708F0C8FF98BFDFF8E06705D938
:1014D000DFF8DC1708F0D2FF38BF0E46C4F8A0656D
:1014E000514E3078002802BF5448007801282BD193
:1014F00094F9440A02281FBF94F9440A032894F976
:10150000440A042820D1D4F8A005294609F01EF980
:10151000DFF8A01708F0A0FF06D8DFF89C072946DF
:1015200009F0F4F9C4F8A005D4F8A005DFF88C7729
:10153000294609F00BF9394608F0A0FF04D22846E5
:1015400009F0E4F9C4F8A0053078FF2802BF3B4851
:10155000007801282BD194F9440A02281FBF94F97E
:10156000440A032894F9440A042820D1D4F8A00599
:10157000294609F0EBF8DFF8481708F06DFF06D8A8
:10158000DFF84007294609F0C1F9C4F8A005D4F8EE
:10159000A005DFF83467294609F0D8F8314608F08D
:1015A0006DFF04D2284609F0B1F9C4F8A00501B0D6
:1015B000BDE8F08FF0B483B0752100F2EA0000AA14
:1015C0008388ADF80030438853800388938030F8D7
:1015D000023CADF8063030F8043CADF8083000238A
:1015E0000024C3F10405012D10DB00AE06EB440618
:1015F00032F914C0B6F902706745BCBF22F8147006
:10160000A6F802C0641C64B2AC42EEDB5B1C052B86
:10161000E6DB938820F80239491E0229D0DA03B0AC
:10162000F0BC70479283FF1F7E86FF1F8086FF1FDE
:101630008486FF1F8686FF1FE008FF1F7786FF1F37
:101640009A83FF1F7A85FF1F5C86FF1F0000F04111
:101650002483FF1FCDCC4C3F000020412DE9F04FEB
:10166000DFF82CA6DFF86866DFF86876DFF868B682
:1016700085B075250AF5EA790AF56B785FF0000404
:10168000B6F90400315F401A09F082F900225B4686
:1016900009F094F909F064FA49F80409B7F900105F
:1016A000B7F90400401A09F073F922465B4609F0C5
:1016B00085F909F055FA48F8040936F9021CB6F91B
:1016C0000200401A09F064F922465B4609F076F9F7
:1016D00009F046FA49F8040937F9021CB7F9020083
:1016E000401A09F055F922465B4609F067F909F0FE
:1016F00037FAAD1E3F1F361F6DB248F80409002DA2
:10170000BED5DFF8D805B0F9EA0028BBDFF8CC0574
:10171000B0F9EC0001281FDB9AF9940503281BDAC5
:101720005044752180F891159AF9940501280EDB33
:10173000504490F9901590F99125891A0F2906DAED
:1017400080F891459AF89405401E8AF894059AF815
:101750009405401C8AF89405DFF88405B0F9EA0086
:101760009F2825D1DFF87805B0F9EC009F28BCBF91
:101770009AF99C0503281BDA5044752180F89915C5
:101780009AF99C0501280EDB504490F9981590F9C0
:101790009925891A0F2906DA80F899459AF89C0547
:1017A000401E8AF89C059AF89C05401C8AF89C0506
:1017B0007422DFF83005DFF83015035F13BBB0F992
:1017C0000230012B1EDB9AF99435032B1ADA5344AD
:1017D00083F891259AF99435012B0EDB534493F944
:1017E000905593F99165AD1B0F2D06DA83F891455D
:1017F0009AF894355B1E8AF894359AF894355B1CF8
:101800008AF894350B5F9F2B22D1B1F902309F2BC0
:10181000BCBF9AF99C35032B1ADA534483F89925F7
:101820009AF99C35012B0EDB534493F9985593F9A3
:101830009965AD1B0F2D06DA83F899459AF89C350A
:101840005B1E8AF89C359AF89C355B1C8AF89C359F
:10185000521E30F9023C0BBBC35E012B1EDB9AF912
:101860009435032B1ADA534483F891259AF9943569
:10187000012B0EDB534493F9905593F99165AD1B01
:101880000F2D06DA83F891459AF894355B1E8AF895
:1018900094359AF894355B1C8AF8943531F9023CFA
:1018A0009F2B21D10B5F9F2BBCBF9AF99C35032B3B
:1018B0001ADA534483F899259AF99C35012B0EDBEB
:1018C000534493F9985593F99965AD1B0F2D06DA9A
:1018D00083F899459AF89C355B1E8AF89C359AF8EE
:1018E0009C355B1C8AF89C35521E091F001F52B2A2
:1018F000652ABFF662AF72208AF8460A0AF5E475D7
:101900000AF63C4002900AF568760AF27870009078
:101910000AF648170AF60C600190A968686808F092
:10192000F5FF296808F0F2FFE84908F091FE0299F6
:1019300008608046D5F800906868AC68414608F0B9
:1019400005FF83462046414608F000FF044648460E
:10195000414608F0FBFE80462046214608F06AFF1B
:1019600004465846594608F065FF214608F0CEFF68
:1019700004464046414608F05DFF214608F0C6FF98
:10198000D24908F065FE009908604FF0824108F0E6
:1019900063FD26D80098406808F070FD21D29AF9BE
:1019A000940503281DDA9AF8461A504480F89115D8
:1019B0009AF9940501280FDB504490F9901590F99D
:1019C0009125891A0F2907DA002180F891159AF8D4
:1019D0009405401E8AF894059AF89405401C8AF8EC
:1019E0009405B168706808F091FF316808F08EFFC7
:1019F000B64908F02DFE019908608046D6F800909F
:101A00007068B468414608F0A1FE8346204641460E
:101A100008F09CFE04464846414608F097FE804682
:101A20002046214608F006FF04465846594608F06D
:101A300001FF214608F06AFF04464046414608F08F
:101A4000F9FE214608F062FFA04908F001FE4FF0C0
:101A5000824108F001FD386025D8786808F00EFD55
:101A600021D29AF99C0503281DDA9AF8461A5044A7
:101A700080F899159AF99C0501280FDB504490F9DC
:101A8000981590F99925891A0F2907DA002180F80D
:101A900099159AF89C05401E8AF89C059AF89C05B1
:101AA000401C8AF89C059AF8460AA0F101088AF8B9
:101AB000468A6968286808F029FF55F8041C08F070
:101AC00025FF824908F0C4FD029941F8040C8146C3
:101AD00055F8040C2C6869680391494608F036FEF5
:101AE00083462046494608F031FE0446039849469D
:101AF00008F02CFE014608F09DFE81462046214656
:101B000008F098FE494608F001FF04465846594639
:101B100008F090FE214608F0F9FE6C4908F098FDA7
:101B2000009941F8040C4FF0824108F095FC24D84C
:101B30000098006808F0A2FC1FD29AF994050328C7
:101B40001BDA504480F891859AF9940501280FDB3F
:101B5000504490F9901590F99125891A0F2907DAC8
:101B6000002180F891159AF89405401E8AF8940592
:101B70009AF89405401C8AF894057168306808F05A
:101B8000C5FE56F8041C08F0C1FE504908F060FD7F
:101B9000019941F8040C834656F8040C34687168C6
:101BA0000391594608F0D2FD81462046594608F077
:101BB000CDFD04460398594608F0C8FD014608F0DB
:101BC00039FE83462046214608F034FE594608F087
:101BD0009DFE04464846494608F02CFE214608F082
:101BE00095FE3A4908F034FD4FF0824108F034FC8C
:101BF00047F8040C23D8386808F040FC1FD29AF943
:101C00009C0503281BDA504480F899859AF99C05B5
:101C100001280FDB504490F9981590F99925891AFD
:101C20000F2907DA002180F899159AF89C05401EC3
:101C30008AF89C059AF89C05401C8AF89C05A8F136
:101C4000010001998AF8460A08390191083F009974
:101C500008390091083E0299083D083940B20291C6
:101C60000528BFF65AAE05B0BDE8F08F7486FF1F99
:101C70007586FF1F010000409A99593F3886FF1F63
:101C80001F856B3F3333733F14AE473FC808FF1FB8
:101C9000E410FF1F0000EE42D820FF1F8C84FF1FBE
:101CA0000100F0410000F0C101001643000016439E
:101CB000000016C30100104100001041000010C1D7
:101CC0000100704100007041000070C10000404000
:101CD0009683FF1F8684FF1F0000E03FAC82FF1F3A
:101CE0009C83FF1F9483FF1F8484FF1F2DE9F04F07
:101CF000DFF8FC9AB9F9621A002081B00129A4BF6B
:101D0000B9F9646A012E0DDB084608F087FC074626
:101D100009EB4600B0F9500908F080FC014638464E
:101D200008F096FC99F8451A012940F0678199F965
:101D3000441A21B9002089F8450A01205CE199F98B
:101D4000441A04290AD1002089F8450ADFF8A40AB8
:101D50000078002840F0528101204DE199F9441AA1
:101D6000DFF8945A032928D1002089F8450A9F21D9
:101D70005FF0500005F1A002B2F900308B42B8BF0D
:101D80001946B2F90230401C8B42C8BF0B46B2F96B
:101D900004A0401C9A45C8BF9A46B2F90610401CE0
:101DA0005145C8BF5146401C083200B27828E3DBD9
:101DB000002900F0238104201EE150215FF0000281
:101DC00005F1A003B3F90060B242B8BF3246B3F9DF
:101DD0000260491CB242B8BF3246B3F90460491CE4
:101DE000B242B8BF3246B3F90660491CB242B8BF2E
:101DF0003246491C083309B27829E3DB72BB502113
:101E00005FF09F02DFF8F439B3F900609642B8BF83
:101E10003246B3F90260491C9642C8BF1646B3F970
:101E20000470491CB742C8BF3746B3F90620491CA5
:101E3000BA42C8BF3A46491C083309B27829E3DBE5
:101E40009F2A04BF99F9441A012907D1DFF8B01974
:101E5000097819B9002089F8450ACCE0DFF8141E8A
:101E600008F0FAFA00F28680DFF80C1E08F006FB94
:101E700080F0808099F9440A012840F07B80B9F90C
:101E80004A0AB9F9646A9F22431C9E4272DA9B1B7C
:101E900005EB460713F0030C00F00B80B7F900E0E8
:101EA0009645B8BF7246ACF1010CBF1CBCF1000FE7
:101EB000F4D19B0800F01A80B7F900109142B8BF26
:101EC0000A46B7F902C09445C8BF9446B7F904E082
:101ED000E645C8BFE646B7F906200FFA8EFE724502
:101EE000C8BF72465B1E0837002BE5D1002A41D1DE
:101EF000B9F94C2A13460027591C8E423ADA891B3D
:101F0000DFF8784D04EB460C11F0030800F00A806E
:101F1000BCF90040A742B8BF2746B8F101080CF150
:101F2000020CF5D15FEA910E00F01980BCF90010A7
:101F30008F42B8BF0F46BCF902108F42B8BF0F46A0
:101F4000BCF904108F42B8BF0F46BCF906108F428F
:101F5000B8BF0F46BEF1010E0CF1080CE6D19F2F61
:101F600008D18242B8BF0346981B1028A4BF0220A4
:101F700089F8440A99F9440A02283FD1002089F8D7
:101F8000450A9F215FF0690005F2D202B2F90030E4
:101F90008B42B8BF1946B2F90230401C8B42C8BF11
:101FA0000B46B2F90410401C9942C8BF1946401CA8
:101FB00000B202F206027828E8DBF9B95FF06900A6
:101FC000DFF8BC2CB2F900309942B8BF1946B2F91B
:101FD0000230401C9942B8BF1946B2F90430401C87
:101FE0009942B8BF1946401C00B202F20602782896
:101FF000E8DB9F2902D1032089F8440ADFF8F407BF
:102000000078012840F0328699F9440ADFF8E8A701
:10201000032840F04682772089F8460A0AF2EE004B
:1020200002E0491E89F8461A30F9021921B199F9DE
:10203000461A0129BFF6F5AF99F9460A01463AF961
:1020400011202AB90129A4BF401E89F8460AF3DAF3
:10205000C01E0128C0F2AF80CF1E3FB2082FA4BF20
:102060003AF917001F28C0F2A780AAF8EE003E46F2
:102070003AF91620811A04BF401CAAF8EE00BAF9FA
:10208000EE703AF81600381A05B2002D79D0C6F174
:10209000770008F07DFC80460C46284608F078FC66
:1020A00002460B464046214608F0A2FD08F058FDC6
:1020B0008046384608F0B2FA414608F0BBFB0146BC
:1020C000DFF8C00B08F042FB07464046002108F04D
:1020D000B3FE56D07624762E53DAC6F176050AF191
:1020E000EC0615F0030B10D020B208F097FA394631
:1020F00008F02CFB414608F0ABFA08F06DFA641EBC
:1021000026F80209BBF1010BEED1AD0839D020B29F
:1021100008F084FA394608F019FB414608F098FAAD
:1021200008F05AFA26F80209641E20B208F076FA7E
:10213000394608F00BFB414608F08AFA08F04CFAE1
:1021400026F80209641E20B208F068FA394608F041
:10215000FDFA414608F07CFA08F03EFA26F802093A
:10216000641E20B208F05AFA394608F0EFFA4146E8
:1021700008F06EFA08F030FA641E26F802096D1EA7
:10218000C5D1BAF8EE00DFF8F46A762189F8461A6C
:1021900010F12300A6F8EE0006F1EC0121F8020987
:1021A00021F8020999F8462A921E89F8462A52B265
:1021B000012AF3DA6EE100273AF917000A2880F2C3
:1021C0006981DFF8C40AB0F90000772178283EDA87
:1021D00009F28E5209F6F27309F29E46DFF8AC7AE4
:1021E000B2F900C002E000BFACF1010CB6F900E0AA
:1021F0000FFA8CFCE64520DAE6460EEB07081EF8DF
:10220000075018F801BC08F101041BEB050501BFDC
:10221000657898F801B05D44B5F5FF7F0BD0647820
:1022200098F801502C1902BF1EF8074018F8015CFD
:1022300015EB040ED8D1A3F800C0491EA03FB61E6E
:102240009B1E921E4CB2A9F850CA8442C8DA77216C
:1022500009F6F27200E0491E4BB283421EDB32F9EE
:102260000239A02B17D1491E4BB2834216DB32F93B
:102270000239A02B0FD1491E4BB283420EDB32F93B
:102280000239A02B07D1491E4BB2834206DB32F93B
:102290000239A02BDFD049B2A9F8561AB9F9561A5B
:1022A0004AB209EB420303F6047300E0521E56B231
:1022B00086421FDB33F90269A02E17D0521E56B298
:1022C000864217DB33F90269A02E0FD0521E56B298
:1022D00086420FDB33F90269A02E07D0521E56B298
:1022E000864207DB33F90269A02EDFD152B2531CBC
:1022F000A9F8583A801D89F8462A814206DBB9F8C8
:10230000580A89F8471A081A89F8480A99F9470AB1
:102310000B28A4BF99F9482A0B2AC0F2BB80821A65
:1023200003460AEB400690420CDB09EB40013746BE
:1023300001F6047131F8025927F802595B1E5BB2AD
:102340009342F7DA36F9061CAAF8EE10C61E36B22A
:102350003AF91600081A04BF481CAAF8EE00BAF9A8
:10236000EE703AF81600381A05B2002D79D0C6F191
:10237000770008F00DFB80460C46284608F008FB65
:1023800002460B464046214608F032FC08F0E8FBC6
:102390008046384608F042F9414608F04BFA0146BB
:1023A000DFF8E00808F0D2F907464046002108F0BF
:1023B00043FD56D07624762E53DAC6F176050AF11F
:1023C000EC0615F0030B10D020B208F027F93946BF
:1023D00008F0BCF9414608F03BF908F0FDF8641E2E
:1023E00026F80209BBF1010BEED1AD0839D020B2BD
:1023F00008F014F9394608F0A9F9414608F028F91F
:1024000008F0EAF826F80209641E20B208F006F97E
:10241000394608F09BF9414608F01AF908F0DCF853
:1024200026F80209641E20B208F0F8F8394608F0D0
:102430008DF9414608F00CF908F0CEF826F80209AB
:10244000641E20B208F0EAF8394608F07FF94146E8
:1024500008F0FEF808F0C0F8641E26F802096D1EA8
:10246000C5D1BAF8EE00DFF81468762189F8461A6B
:1024700010F12300A6F8EE0006F1EC0121F80209A4
:1024800021F8020999F8462A921E89F8462A52B282
:10249000012AF3DADFF8F807DFF8EC1790F900000B
:1024A000088099F9440A022840F0AE83772089F821
:1024B000460A0AF2EE0002E0491E89F8461A30F98F
:1024C000021919B199F9461A0129F5DA99F9460A5A
:1024D00001463AF911202AB90129A4BF401E89F802
:1024E000460AF3DA08380128C0F25F81A1F1080733
:1024F0003FB2032FC0F25A81B9F94A1A8F4280F2D3
:1025000055813AF911003AF91710884280F2538147
:10251000BAF9EE003E46411A04BF401CAAF8EE008C
:10252000BAF9EE803AF81600A8EB000004B2002CCD
:102530007AD0C6F1770008F02BFA05468B46204684
:1025400008F026FA02460B462846594608F050FB8A
:1025500008F006FB0446404608F060F8214608F003
:1025600069F90146DFF81C0708F0F0F880462046BC
:10257000002108F061FC57D07625762E54DAC6F19A
:10258000760000900AF1EC0B10F003060FD028B291
:1025900008F044F8414608F0D9F8214608F058F808
:1025A00008F01AF86D1E2BF80209761EEFD100987C
:1025B000860839D028B208F031F8414608F0C6F84C
:1025C000214608F045F808F007F82BF802096D1EBF
:1025D00028B208F023F8414608F0B8F8214608F080
:1025E00037F807F0F9FF2BF802096D1E28B208F042
:1025F00015F8414608F0AAF8214608F029F807F036
:10260000EBFF2BF802096D1E28B208F007F84146CF
:1026100008F09CF8214608F01BF807F0DDFF6D1E5E
:102620002BF80209761EC5D17AB23846DFF84C661F
:10263000012A24DB7BB206EB42010AEB420213F0D3
:10264000030C07D0401E32F802E921F802E9BCF180
:10265000010CF7D19B0812D032F8024921F8024947
:10266000001F32F8024921F802495B1E32F8024984
:1026700021F8024932F8024921F80249ECD189F8DF
:10268000460ABAF8EE002D30A6F8EE0000B236F990
:102690001710411A04BF401CA6F8EE00B6F9EE80F0
:1026A00036F81700A8EB000004B2002C00F0A78257
:1026B000C7F1770008F06CF905468B46204608F014
:1026C00067F902460B462846594608F091FA08F089
:1026D00047FA0446404607F0A1FF214608F0AAF851
:1026E0000146DFF8A00508F031F8804620460021B9
:1026F00008F0A2FB00F083827625762F80F27F829D
:10270000C7F17607EC3617F0030B10D028B207F0AC
:1027100085FF414608F01AF8214607F099FF07F0B7
:102720005BFF6D1E26F80209BBF1010BEED1BF085D
:1027300000F0658228B207F071FF414608F006F804
:10274000214607F085FF07F047FF26F802096D1EB6
:1027500028B207F063FF414607F0F8FF214607F073
:1027600077FF07F039FF26F802096D1E28B207F03F
:1027700055FF414607F0EAFF214607F069FF07F0E1
:102780002BFF26F802096D1E28B207F047FF4146CD
:1027900007F0DCFF214607F05BFF07F01DFF6D1E11
:1027A00026F802097F1EC5D129E20027B9F94A0A95
:1027B000874280F22482B9F94A1A3AF917003AF9A5
:1027C0001110884280F21B82DFF8BC04B0F90000CF
:1027D0007721782880F2498009F28E5209F6F27347
:1027E00009F29E46DFF8A474B2F900C00CE000BF05
:1027F000E410FF1F7786FF1FAC82FF1F3C84FF1F82
:102800006A86FF1FACF1010CB6F900E00FFA8CFCF0
:10281000E64520DAE6460EEB07081EF8075018F8E2
:1028200001BC08F101041BEB050501BF657898F8B0
:1028300001B05D44B5F5FF7F0BD0647898F8015086
:102840002C1902BF1EF8074018F8015C15EB040EA6
:10285000D8D1A3F800C0491EA03FB61E9B1E921EF1
:102860004CB2A9F850CA8442BEDA772109F6F27256
:1028700000E0491E4BB283421EDB32F90239A02B25
:1028800017D1491E4BB2834216DB32F90239A02B15
:102890000FD1491E4BB283420EDB32F90239A02B15
:1028A00007D1491E4BB2834206DB32F90239A02B15
:1028B000DFD049B2A9F8561AB9F9561A4AB209EB4B
:1028C000420303F6047300E0521E56B286421FDB39
:1028D00033F90269A02E17D0521E56B2864217DB7A
:1028E00033F90269A02E0FD0521E56B286420FDB7A
:1028F00033F90269A02E07D0521E56B2864207DB7A
:1029000033F90269A02EDFD152B2531CA9F8583A0C
:10291000801D89F8462A814206DBB9F8580A89F8F1
:10292000471A081A89F8480A99F9477A0B2FA4BF61
:1029300099F9480A0B28C0F2628109EB4701B1F905
:10294000F42E6E2A80F25B81381A3A4687420BDBFE
:102950000AEB470301F6047131F8026923F80269B2
:10296000521E52B28242F7DA99F9470AA0F10806DC
:1029700036B2BAF9EE003AF91610411A04BF401CFB
:10298000AAF8EE00BAF9EE803AF81600A8EB0000BB
:1029900004B2002C79D0C6F1770007F0F9FF0546A4
:1029A0008B46204607F0F4FF02460B462846594660
:1029B00008F01EF908F0D4F80446404607F02EFE51
:1029C000214607F037FF0146AE4807F0BFFE8046BC
:1029D0002046002108F030FA57D07625762E54DABA
:1029E000C6F1760000900AF1EC0B10F003060FD050
:1029F00028B207F013FE414607F0A8FE214607F073
:102A000027FE07F0E9FD6D1E2BF80209761EEFD1B7
:102A10000098860839D028B207F000FE414607F03A
:102A200095FE214607F014FE07F0D6FD2BF80209AB
:102A30006D1E28B207F0F2FD414607F087FE2146E1
:102A400007F006FE07F0C8FD2BF802096D1E28B23C
:102A500007F0E4FD414607F079FE214607F0F8FD56
:102A600007F0BAFD2BF802096D1E28B207F0D6FD5B
:102A7000414607F06BFE214607F0EAFD07F0ACFD8A
:102A80006D1E2BF80209761EC5D199F9470A7B4EB7
:102A9000024606EB47010AEB470312F0030706D094
:102AA000401E33F8024921F802497F1EF8D19208EE
:102AB00000F0138033F8027921F80279001F33F80F
:102AC000027921F80279521E33F8027921F802794D
:102AD00033F8027921F80279ECD189F8460ABAF87C
:102AE000EE0099F9477A2D30A6F8EE0000B236F9DB
:102AF0001710411A04BF401CA6F8EE00B6F9EE808C
:102B000036F81700A8EB000004B2002C77D0C7F10C
:102B1000770007F03DFF05468B46204607F038FF5B
:102B200002460B462846594608F062F808F018F8A5
:102B30000446404607F072FD214607F07BFE014641
:102B4000504807F003FE80462046002108F074F943
:102B500055D07625762F52DAC7F17607EC3617F086
:102B6000030B10D028B207F059FD414607F0EEFDE7
:102B7000214607F06DFD07F02FFD6D1E26F80209B6
:102B8000BBF1010BEED1BF0839D028B207F046FDEA
:102B9000414607F0DBFD214607F05AFD07F01CFD1A
:102BA00026F802096D1E28B207F038FD414607F0ED
:102BB000CDFD214607F04CFD07F00EFD26F8020979
:102BC0006D1E28B207F02AFD414607F0BFFD2146E1
:102BD00007F03EFD07F000FD26F802096D1E28B241
:102BE00007F01CFD414607F0B1FD214607F030FD1E
:102BF00007F0F2FC6D1E26F802097F1EC5D124489D
:102C0000214990F90000088099F9440A04282DD13F
:102C1000BAF8EE00194E3030A6F8EE00762106F133
:102C2000EC02891E22F8020949B222F802090129A0
:102C3000F7DA76200AF1EC01B1F9002012B9BAF8FE
:102C4000EE200A80401E31F9022C1AB9BAF8EE20A3
:102C500021F8022C401E091F40B20128ECDA89F845
:102C6000460A09490A4890F90000088001B0BDE809
:102C7000F08F00BF6766663FCDCC8C3F9C83FF1F03
:102C80006E84FF1F0000EE42E624FF1F0C82FF1F30
:102C90006486FF1F2DE9F04FDFF8089BB9F9621A2F
:102CA000002081B00129A4BFB9F9647A012F0DDB9E
:102CB000084607F0B3FC064609EB4700B0F9500997
:102CC00007F0ACFC0146304607F0C2FC99F8451A03
:102CD000012940F0678199F9441A21B9002089F847
:102CE000450A01205CE199F9441A04290AD100201F
:102CF00089F8450ADFF8B00A0078002840F05281D0
:102D000001204DE199F9441A032928D1002089F8BE
:102D1000450A00215FF05000DFF8902AB2F9003038
:102D20009942B8BF1946B2F90230401C9942B8BF67
:102D30001946B2F90430401C9942B8BF1946B2F99D
:102D40000630401C9942B8BF1946401C083200B2F8
:102D50007828E3DB9F2900F02581042020E1DFF8BB
:102D6000506A50215FF0000206F1A003B3F9007031
:102D7000BA42B8BF3A46B3F90270491CBA42B8BF6A
:102D80003A46B3F90470491CBA42B8BF3A46B3F99F
:102D90000670491CBA42B8BF3A46491C083309B20A
:102DA0007829E3DB72BB50215FF09F02DFF8FC392A
:102DB000B3F900709742B8BF3A46B3F902A0491C74
:102DC0009245C8BF9246B3F90470491C5745C8BF25
:102DD0005746B3F90620491CBA42C8BF3A46491CB7
:102DE000083309B27829E3DB9F2A04BF99F9441A12
:102DF000012907D1DFF8BC19097819B9002089F831
:102E0000450ACCE0DFF8241E07F026FB00F286809E
:102E1000DFF81C1E07F032FB80F0808099F9440A2D
:102E2000012840F07B80B9F94A1AB9F9645A9F2009
:102E30004B1C9D4272DA5B1B06EB450713F0030C3B
:102E400000F00B80B7F900E08645B8BF7046ACF1E2
:102E5000010CBF1CBCF1000FF4D19B0800F01A80DC
:102E6000B7F900208242B8BF1046B7F902C08445C6
:102E7000C8BF8446B7F904E0E645C8BFE646B7F9DF
:102E800006000FFA8EFE7045C8BF70465B1E0837FD
:102E9000002BE5D1002841D1B9F94C0A034600279F
:102EA0005A1C95423ADA521BDFF8884D04EB450C68
:102EB00012F0030800F00A80BCF90040A742B8BF36
:102EC0002746B8F101080CF1020CF5D15FEA920E29
:102ED00000F01980BCF900209742B8BF1746BCF932
:102EE00002209742B8BF1746BCF904209742B8BFEA
:102EF0001746BCF906209742B8BF1746BEF1010E2F
:102F00000CF1080CE6D19F2F08D18842B8BF0B46C0
:102F1000581B1028A4BF022089F8440A99F9440AD2
:102F200002283FD1002089F8450A9F215FF06900FF
:102F300006F2D202B2F900308B42B8BF1946B2F99C
:102F40000230401C8B42C8BF0B46B2F90410401C33
:102F50009942C8BF1946401C00B202F20602782806
:102F6000E8DBF9B95FF06900DFF8CC2CB2F900308A
:102F70009942B8BF1946B2F90230401C9942B8BF15
:102F80001946B2F90430401C9942B8BF1946401C9A
:102F900000B202F206027828E8DB9F2902D1032062
:102FA00089F8440ADFF800080078012840F03A86E2
:102FB00099F9440ADFF87CAC032840F04882772076
:102FC00089F8460A0AF2EE0002E0491E89F8461A1C
:102FD00030F902199F2903D099F9461A0129F4DA28
:102FE00099F9460A01463AF911209F2A05D101298B
:102FF000A4BF401E89F8460AF2DAC01E0128C0F2BA
:10300000B080CF1E3FB2082FC0F2AC803AF9170053
:10301000822880F2A780AAF8EE003E463AF91620F0
:10302000811A04BF401CAAF8EE00BAF9EE703AF813
:103030001600381A05B2002D79D0C6F1770007F0D6
:10304000A7FC80460C46284607F0A2FC02460B4629
:103050004046214607F0CCFD07F082FD8046384609
:1030600007F0DCFA414607F0E5FB0146DFF8CC0B40
:1030700007F06CFB07464046002107F0DDFE56D006
:103080007624762E53DAC6F176050AF1EC0615F0B1
:10309000030B10D020B207F0C1FA394607F056FBF7
:1030A000414607F0D5FA07F097FA641E26F80209A0
:1030B000BBF1010BEED1AD0839D020B207F0AEFA6A
:1030C000394607F043FB414607F0C2FA07F084FA9D
:1030D00026F80209641E20B207F0A0FA394607F06C
:1030E00035FB414607F0B4FA07F076FA26F80209F4
:1030F000641E20B207F092FA394607F027FB4146DA
:1031000007F0A6FA07F068FA26F80209641E20B252
:1031100007F084FA394607F019FB414607F098FAA0
:1031200007F05AFA641E26F802096D1EC5D1BAF8D6
:10313000EE00DFF87C66762189F8461AB0F12300AC
:10314000A6F8EE0006F1EC0121F8020921F80209C7
:1031500099F8462A921E89F8462A52B2012AF3DAD1
:103160006EE100273AF917009628C0F26981DFF86E
:10317000D00AB0F90000772178283FDA09F29E42A0
:1031800009F6027309F28E56DFF8B87AB2F900C078
:1031900002E000BF0CF1010CB6F900E00FFA8CFC64
:1031A000F44521DAE6460EEB07081EF8075098F8BA
:1031B00001B0A8F102041BEB050501BF18F8025C81
:1031C00094F801B05D44B5F5FF7F0BD018F8025CB0
:1031D0006478641902BF1EF8074098F8015015EB97
:1031E000040ED7D1A3F800C0491EA03FB61E9B1EF7
:1031F000921E4CB2A9F850CA8442C7DA772109F668
:10320000027200E0491E4BB283421EDB32F90239E2
:10321000A02B17D1491E4BB2834216DB32F902397B
:10322000A02B0FD1491E4BB283420EDB32F902397B
:10323000A02B07D1491E4BB2834206DB32F902397B
:10324000A02BDFD049B2A9F8521AB9F9521A4AB2E2
:1032500009EB420303F6146300E0521E56B28642A5
:103260001FDB33F90269A02E17D0521E56B28642D8
:1032700017DB33F90269A02E0FD0521E56B28642D8
:103280000FDB33F90269A02E07D0521E56B28642D8
:1032900007DB33F90269A02EDFD152B2531CA9F823
:1032A000543A801D89F8462A814206DBB9F8540A4F
:1032B00089F8471A081A89F8480A99F9470A0B2821
:1032C000A4BF99F9482A0B2AC0F2BA80821A034691
:1032D0000AEB400690420DDB09EB40014FEA06077E
:1032E00001F6146131F8025927F802595B1E5BB2EE
:1032F0009342F7DA36F9061CAAF8EE10C61E36B26B
:103300003AF91600081A04BF481CAAF8EE00BAF9E8
:10331000EE703AF81600381A05B2002D79D0C6F1D1
:10332000770007F035FB80460C46284607F030FB57
:1033300002460B464046214607F05AFC07F010FCB7
:103340008046384607F06AF9414607F073FA0146AD
:10335000DFF8E80807F0FAF907464046002107F0D1
:103360006BFD56D07624762E53DAC6F176050AF137
:10337000EC0615F0030B10D020B207F04FF93946D8
:1033800007F0E4F9414607F063F907F025F9641EF8
:1033900026F80209BBF1010BEED1AD0839D020B2FD
:1033A00007F03CF9394607F0D1F9414607F050F9EA
:1033B00007F012F926F80209641E20B207F02EF970
:1033C000394607F0C3F9414607F042F907F004F91E
:1033D00026F80209641E20B207F020F9394607F0EA
:1033E000B5F9414607F034F907F0F6F826F8020976
:1033F000641E20B207F012F9394607F0A7F94146DA
:1034000007F026F907F0E8F8641E26F802096D1E99
:10341000C5D1BAF8EE00E64E762189F8461A23386F
:10342000A6F8EE0006F1EC0121F8020921F80209E4
:1034300099F8462A921E89F8462A52B2012AF3DAEE
:10344000DFF80408DFF8F81790F90000088099F910
:10345000440A022840F0B283772089F8460A0AF22B
:10346000EE0002E0491E89F8461A30F902199F2938
:1034700004D099F9461A0129BFF6F4AF99F9460A22
:1034800001463AF911209F2A05D10129A4BF401E07
:1034900089F8460AF2DA08380128C0F26081A1F101
:1034A00008073FB2032FC0F25B81B9F94C3A9F4243
:1034B00080F256813AF917003AF91310884280F2E7
:1034C00054813E46BAF9EE003AF91610411A04BF8B
:1034D000401CAAF8EE00BAF9EE803AF81600A8EB04
:1034E000000004B2002C7AD0C6F1770007F050FA41
:1034F00005468B46204607F04BFA02460B46284607
:10350000594607F075FB07F02BFB0446404607F0D1
:1035100085F8214607F08EF90146DFF8200707F00D
:1035200015F980462046002107F086FC57D0762505
:10353000762E54DAC6F1760000900AF1EC0B10F00A
:1035400003060FD028B207F069F8414607F0FEF8ED
:10355000214607F07DF807F03FF86D1E2BF80209B1
:10356000761EEFD10098860839D028B207F056F8B9
:10357000414607F0EBF8214607F06AF807F02CF80F
:103580002BF802096D1E28B207F048F8414607F0F3
:10359000DDF8214607F05CF807F01EF82BF8020969
:1035A0006D1E28B207F03AF8414607F0CFF82146E1
:1035B00007F04EF807F010F82BF802096D1E28B23C
:1035C00007F02CF8414607F0C1F8214607F040F813
:1035D00007F002F86D1E2BF80209761EC5D17AB2EB
:1035E0003846734E012A24DB7BB206EB42010AEB1C
:1035F000420213F0030C07D0401E32F802E921F812
:1036000002E9BCF1010CF7D19B0812D032F8024953
:1036100021F80249001F32F8024921F802495B1ED5
:1036200032F8024921F8024932F8024921F80249E8
:10363000ECD189F8460ABAF8EE002D38A6F8EE006B
:1036400000B236F91710411A04BF401CA6F8EE006C
:10365000B6F9EE8036F81700A8EB000004B2002C93
:1036600000F0A782C7F1770007F092F905468B4674
:10367000204607F08DF902460B462846594607F0CA
:10368000B7FA07F06DFA0446404606F0C7FF214638
:1036900007F0D0F80146DFF8A40507F057F8804698
:1036A0002046002107F0C8FB00F083827625762FA4
:1036B00080F27F82C7F17607EC3617F0030B10D04B
:1036C00028B206F0ABFF414607F040F8214606F06D
:1036D000BFFF06F081FF6D1E26F80209BBF1010B4A
:1036E000EED1BF0800F0658228B206F097FF414690
:1036F00007F02CF8214606F0ABFF06F06DFF26F828
:1037000002096D1E28B206F089FF414607F01EF837
:10371000214606F09DFF06F05FFF26F802096D1EA8
:1037200028B206F07BFF414607F010F8214606F06C
:103730008FFF06F051FF26F802096D1E28B206F031
:103740006DFF414607F002F8214606F081FF06F0C2
:1037500043FF6D1E26F802097F1EC5D129E200270E
:10376000B9F94C0A874280F22482B9F94C0A3AF935
:1037700010003AF91710884280F21B82DFF8C0046B
:10378000B0F900007721782880F24A8009F29E4241
:1037900009F6027309F28E56DFF8A874B2F900C078
:1037A0000CE000BFE410FF1F7786FF1F3C84FF1F63
:1037B000AC82FF1F6A86FF1F0CF1010CB6F900E016
:1037C0000FFA8CFCF44521DAE6460EEB07081EF8EA
:1037D000075098F801B0A8F102041BEB050501BFE2
:1037E00018F8025C94F801B05D44B5F5FF7F0BD08A
:1037F00018F8025C6478641902BF1EF8074098F854
:10380000015015EB040ED7D1A3F800C0491EA03F0C
:10381000B61E9B1E921E4CB2A9F850CA8442BDDA55
:10382000772109F6027200E0491E4BB283421EDB8B
:1038300032F90239A02B17D1491E4BB2834216DB55
:1038400032F90239A02B0FD1491E4BB283420EDB55
:1038500032F90239A02B07D1491E4BB2834206DB55
:1038600032F90239A02BDFD049B2A9F8521AB9F9BE
:10387000521A4AB209EB420303F6146300E0521EE7
:1038800056B286421FDB33F90269A02E17D0521EB2
:1038900056B2864217DB33F90269A02E0FD0521EB2
:1038A00056B286420FDB33F90269A02E07D0521EB2
:1038B00056B2864207DB33F90269A02EDFD152B23D
:1038C000531CA9F8543A801D89F8462A814206DB28
:1038D000B9F8540A89F8471A081A89F8480A99F970
:1038E000477A0B2FA4BF99F9480A0B28A2BF09EB0E
:1038F0004701B1F9042E332AC0F25B81381A3A46E7
:1039000087420BDB0AEB470301F6146131F80269C9
:1039100023F80269521E52B28242F7DA99F9470A35
:10392000A0F1080636B2BAF9EE003AF91610411ABB
:1039300004BF401CAAF8EE00BAF9EE803AF816006F
:10394000A8EB000004B2002C79D0C6F1770007F094
:103950001FF805468B46204607F01AF802460B462C
:103960002846594607F044F907F0FAF8044640465D
:1039700006F054FE214606F05DFF0146AF4806F012
:10398000E5FE80462046002107F056FA57D07625FE
:10399000762E54DAC6F1760000900AF1EC0B10F0A6
:1039A00003060FD028B206F039FE414606F0CEFEDF
:1039B000214606F04DFE06F00FFE6D1E2BF80209A3
:1039C000761EEFD10098860839D028B206F026FE80
:1039D000414606F0BBFE214606F03AFE06F0FCFD2D
:1039E0002BF802096D1E28B206F018FE414606F0BB
:1039F000ADFE214606F02CFE06F0EEFD2BF8020986
:103A00006D1E28B206F00AFE414606F09FFE2146D2
:103A100006F01EFE06F0E0FD2BF802096D1E28B22E
:103A200006F0FCFD414606F091FE214606F010FE30
:103A300006F0D2FD6D1E2BF80209761EC5D199F94C
:103A4000470A824E024606EB47010AEB470312F093
:103A5000030706D0401E33F8024921F802497F1EB1
:103A6000F8D1920800F0138033F8027921F8027936
:103A7000001F33F8027921F80279521E33F80279D7
:103A800021F8027933F8027921F80279ECD189F82A
:103A9000460ABAF8EE0099F9477A2D38A6F8EE00F2
:103AA00000B236F91710411A04BF401CA6F8EE0008
:103AB000B6F9EE8036F81700A8EB000004B2002C2F
:103AC00077D0C7F1770006F063FF05468B462046A6
:103AD00006F05EFF02460B462846594607F088F876
:103AE00007F03EF80446404606F098FD214606F0F1
:103AF000A1FE0146514806F029FE804620460021DD
:103B000007F09AF955D07625762F52DAC7F1760765
:103B1000EC3617F0030B10D028B206F07FFD4146BB
:103B200006F014FE214606F093FD06F055FD6D1ECD
:103B300026F80209BBF1010BEED1BF0839D028B23B
:103B400006F06CFD414606F001FE214606F080FDC0
:103B500006F042FD26F802096D1E28B206F05EFD51
:103B6000414606F0F3FD214606F072FD06F034FDF5
:103B700026F802096D1E28B206F050FD414606F0F7
:103B8000E5FD214606F064FD06F026FD26F8020953
:103B90006D1E28B206F042FD414606F0D7FD2146D3
:103BA00006F056FD06F018FD6D1E26F802097F1E70
:103BB000C5D12548224990F90000088099F9440AA6
:103BC00004282FD1BAF8EE00204E3038A6F8EE00C7
:103BD000762106F1EC02891E22F8020949B222F888
:103BE00002090129F7DA76200AF1EC01B1F9002087
:103BF0009F2A04BFBAF8EE200A8031F9022C401E39
:103C00009F2A04BFBAF8EE2021F8022C401E091F9B
:103C100040B20128EADA89F8460A09490A4890F9C7
:103C20000000088001B0BDE8F08F00BF6766663F06
:103C3000CDCC8C3F9C83FF1F6E84FF1F0000EE42A3
:103C4000E624FF1F0C82FF1F6486FF1FAC82FF1F4C
:103C50002DE9F04FDFF8089CB9F8660AB9F89E1410
:103C6000A9F8680A81B0B9F88E05401AA9F8660A61
:103C700099F8450A012804BF99F9440A012823D17B
:103C8000B9F94C0A1A281FDBDFF8D81B31F91010DC
:103C90008B29BFBFDFF8D01BB1F900100C31814276
:103CA00012DA8A2006F063FC012802BFDFF8BC0BA1
:103CB0000078012808D1002089F8450A022089F8F7
:103CC000440A01B0BDE8F08F99F8450A012804BF05
:103CD00099F9441A022940F0E582002089F8450A42
:103CE0006920DFF880AB00210AF2D202B2F900307D
:103CF0009942B8BF1946B2F90230401C9942B8BF88
:103D00001946B2F90430401C9942B8BF1946401C0C
:103D100000B202F206027828E8DB9F2904BF0320E4
:103D200089F8440A772089F8460A0AF2EE0002E090
:103D3000491E89F8461A30F902199F2904D099F9C9
:103D4000461A0129BFF6F4AF99F9460A01463AF935
:103D500011209F2A05D10129A4BF401E89F8460AD7
:103D6000F2DA801F0128C0F2B9808F1F3FB20F2FF7
:103D7000A4BFB9F94C6A1A2EC0F2B1803AF9170003
:103D80003AF91610884280F2AA80BAF9EE003AF9A0
:103D90001710411A04BF401CAAF8EE00BAF9EE80D1
:103DA0003AF81700A8EB000004B2002C7AD0C7F153
:103DB000770006F0EDFD05468B46204606F0E8FD4F
:103DC00002460B462846594606F012FF06F0C8FE8A
:103DD0000446404606F022FC214606F02BFD014633
:103DE000DFF88C0A06F0B2FC80462046002107F07E
:103DF00023F857D07625762F54DAC7F17600009055
:103E00000AF1EC0B10F003070FD028B206F006FC05
:103E1000414606F09BFC214606F01AFC06F0DCFB4E
:103E20006D1E2BF802097F1EEFD10098870839D04C
:103E300028B206F0F3FB414606F088FC214606F066
:103E400007FC06F0C9FB2BF802096D1E28B206F02C
:103E5000E5FB414606F07AFC214606F0F9FB06F048
:103E6000BBFB2BF802096D1E28B206F0D7FB4146BA
:103E700006F06CFC214606F0EBFB06F0ADFB2BF8E0
:103E800002096D1E28B206F0C9FB414606F05EFC31
:103E9000214606F0DDFB06F09FFB6D1E2BF80209A4
:103EA0007F1EC5D1B9F84C0A40B2010000F1638110
:103EB000DFF8C02902EB400209EB46010AEB46039A
:103EC000B1F952495E8804EBD474401EA6EB640439
:103ED00040B222F802490028F2D54CE10027B9F996
:103EE0004C6A3AF916003AF91710884280F2B58404
:103EF00001F04EFF99F9470A0B2873DB99F9481A2C
:103F00000A296FDA09EB4000B0F9080E332869DBA3
:103F1000B9F8540A411E49B209EB410000F6146297
:103F2000DFF84409B0F9000018E0491E4BB28342A3
:103F30001EDB32F90239A02B17D1491E4BB2834246
:103F400016DB32F90239A02B0FD1491E4BB2834246
:103F50000EDB32F90239A02B07D1491E4BB2834246
:103F600006DB32F90239A02BDFD049B2A9F85A1A80
:103F7000B9F95A1A4AB209EB420303F6146318E07E
:103F8000521E57B287421FDB33F90279A02F17D098
:103F9000521E57B2874217DB33F90279A02F0FD098
:103FA000521E57B287420FDB33F90279A02F07D098
:103FB000521E57B2874207DB33F90279A02FDFD1B7
:103FC00052B2531CA9F85C3A89F8462A801DB9F907
:103FD000522A824206DBB9F85C0A89F8471A081AA5
:103FE00089F8480A99F9470A0B28A4BF99F9482A81
:103FF0000A2AA2BF09EB4003B3F9087E332FC0F2AF
:104000002C84821A07469042C0F20C800AEB4001D1
:1040100003F6146333F8024921F802497F1E7FB288
:104020009742F7DA871F3FB2BAF9EE003AF9171054
:10403000411A04BF401CAAF8EE00BAF9EE803AF823
:104040001700A8EB000004B2002C7AD0C7F177006B
:1040500006F09EFC05468B46204606F099FC02467B
:104060000B462846594606F0C3FD06F079FD044686
:10407000404606F0D3FA214606F0DCFB0146DFF8A5
:10408000F00706F063FB80462046002106F0D4FED0
:1040900057D07625762F54DAC7F1760000900AF1D2
:1040A000EC0B10F003070FD028B206F0B7FA414628
:1040B00006F04CFB214606F0CBFA06F08DFA6D1E99
:1040C0002BF802097F1EEFD10098870839D028B25B
:1040D00006F0A4FA414606F039FB214606F0B8FA8C
:1040E00006F07AFA2BF802096D1E28B206F096FA4D
:1040F000414606F02BFB214606F0AAFA06F06CFAC0
:104100002BF802096D1E28B206F088FA414606F027
:104110001DFB214606F09CFA06F05EFA2BF8020918
:104120006D1E28B206F07AFA414606F00FFB2146D2
:1041300006F08EFA06F050FA6D1E2BF802097F1E6B
:10414000C5D1B9F84C0A40B2010014D4DFF82427D5
:1041500002EB400209EB46010AEB4603B1F9524972
:104160005E8804EBD474401EA6EB640440B222F8CF
:1041700002490028F2D589F8460AB9F94C6ADFF8F5
:10418000F476B7F9EE0037F91610411A04BF401C57
:10419000A7F8EE00B7F9EE5037F81600281A04B267
:1041A000002C00F05A83C6F1770006F0F1FB81463F
:1041B0008A46204606F0ECFB02460B46484651462E
:1041C00006F016FD06F0CCFC8246284606F026FADC
:1041D000514606F02FFB0146DFF8940606F0B6FACA
:1041E00005465046002106F027FE00F0368376246F
:1041F000762E80F23283C6F1760607F1EC0916F0CE
:1042000003070FD020B206F009FA294606F09EFAFD
:10421000514606F01DFA06F0DFF9641E29F802097E
:104220007F1EEFD1B60800F0188320B206F0F6F931
:10423000294606F08BFA514606F00AFA06F0CCF948
:1042400029F80209671E38B206F0E8F9294606F097
:104250007DFA514606F0FCF906F0BEF929F802098C
:104260007F1E38B206F0DAF9294606F06FFA514699
:1042700006F0EEF906F0B0F929F802097F1E38B20F
:1042800006F0CCF9294606F061FA514606F0E0F94D
:1042900006F0A2F97C1E29F80209761EC5D101B0EC
:1042A000BDE8F08F012854D150210022DFF8C83535
:1042B000B3F90040A242B8BF2246B3F90240491CFC
:1042C000A242B8BF2246B3F90440491CA242B8BF7B
:1042D0002246B3F90640491CA242B8BF2246491CF7
:1042E000083309B27829E3DB9ABBDFF89035502117
:1042F0005FF09F02B3F900409442B8BF2246B3F981
:1043000002A0491C9245C8BF9246B3F90460491CFB
:104310005645C8BF5646B3F90620491CB242C8BF2D
:104320003246491C083309B27829E3DB9F2A04BFCF
:1043300099F9441A01290CD1DFF84415097841B9DB
:10434000002089F8450A032089F8440A01B0BDE835
:10435000F08F012804BF99F9441A032940F03582EF
:10436000002089F8450A5020DFF8F8A45FF000012A
:104370000AF1A002B2F900309942B8BF1946B2F969
:104380000230401C9942B8BF1946B2F90430401CB3
:104390009942B8BF1946B2F90630401C9942B8BFDD
:1043A0001946401C083200B27828E3DB9F291CBF65
:1043B000042089F8440A772089F8460A0AF2EE00B8
:1043C00002E0491E89F8461A30F902199F2903D0E4
:1043D00099F9461A0129F4DA99F9460A01463AF997
:1043E00011209F2A05D10129A4BF401E89F8460A41
:1043F000F2DAC01F0128C0F2B080CF1F3FB2082FF1
:10440000C0F2AC803AF917008C2880F2A780AAF895
:10441000EE003E463AF91620811A04BF401CAAF865
:10442000EE00BAF9EE703AF81600381A05B2002D0F
:1044300079D0C6F1770006F0ABFA80460C462846E4
:1044400006F0A6FA02460B464046214606F0D0FB8F
:1044500006F086FB8046384606F0E0F8414606F056
:10446000E9F90146DFF8080406F070F9074640460E
:10447000002106F0E1FC56D07624762E53DAC6F100
:1044800076050AF1EC0615F0030B10D020B206F009
:10449000C5F8394606F05AF9414606F0D9F806F053
:1044A0009BF8641E26F80209BBF1010BEED1AD08A2
:1044B00039D020B206F0B2F8394606F047F9414645
:1044C00006F0C6F806F088F826F80209641E20B245
:1044D00006F0A4F8394606F039F9414606F0B8F876
:1044E00006F07AF826F80209641E20B206F096F863
:1044F000394606F02BF9414606F0AAF806F06CF8AA
:1045000026F80209641E20B206F088F8394606F043
:104510001DF9414606F09CF806F05EF8641E26F888
:1045200002096D1EC5D1BAF8EE00D24F762189F886
:10453000461A2838A7F8EE0007F1EC0121F8020925
:1045400021F8020999F8462A921E89F8462A52B2A1
:10455000012AF3DA01B0BDE8F08F00273AF917001D
:104560008C28C0F27A8101F013FC99F9470A0B28D4
:104570006ADB99F9480A0A2866DAB9F8540A411E32
:1045800049B209EB410000F61462B748B0F90000E7
:1045900018E0491E4BB283421EDB32F90239A02BD0
:1045A00017D1491E4BB2834216DB32F90239A02BD8
:1045B0000FD1491E4BB283420EDB32F90239A02BD8
:1045C00007D1491E4BB2834206DB32F90239A02BD8
:1045D000DFD049B2A9F85A1AB9F95A1A4AB209EB06
:1045E000420303F6146318E0521E56B286421FDBE4
:1045F00033F90269A02E17D0521E56B2864217DB3D
:1046000033F90269A02E0FD0521E56B286420FDB3C
:1046100033F90269A02E07D0521E56B2864207DB3C
:1046200033F90269A02EDFD152B2521CA9F85C2ADC
:10463000801DB9F9522A824206DBB9F85C0A89F872
:10464000471A081A89F8480A99F9470A99F9486AED
:10465000861B01460AEB4003B0420DDB09EB40022A
:104660004FEA030702F6146232F8024927F80249BA
:10467000491E49B2B142F7DA33F9061CAAF8EE1026
:10468000C61E36B23AF91600081A04BF481CAAF82A
:10469000EE00BAF9EE703AF81600381A05B2002D9D
:1046A00078D0C6F1770006F073F980460C462846AC
:1046B00006F06EF902460B464046214606F098FA8F
:1046C00006F04EFA8046384605F0A8FF414606F04F
:1046D000B1F80146664806F039F807464046002121
:1046E00006F0AAFB56D07624762E53DAC6F176056C
:1046F0000AF1EC0615F0030B10D020B205F08EFF86
:10470000394606F023F8414605F0A2FF05F064FFA4
:10471000641E26F80209BBF1010BEED1AD0839D0B9
:1047200020B205F07BFF394606F010F8414605F04F
:104730008FFF05F051FF26F80209641E20B205F034
:104740006DFF394606F002F8414605F081FF05F09D
:1047500043FF26F80209641E20B205F05FFF3946C8
:1047600005F0F4FF414605F073FF05F035FF26F82C
:104770000209641E20B205F051FF394605F0E6FF3C
:10478000414605F065FF05F027FF641E26F8020983
:104790006D1EC5D1BAF8EE00364F762189F8461A5B
:1047A000B0F12800A7F8EE0007F1EC0121F80209AA
:1047B00021F8020999F8462A921E89F8462A52B22F
:1047C000012AF3DA01B0BDE8F08F012804BF99F99E
:1047D000440A042841D1002089F8450A7622214C58
:1047E000244FB4F9EE00A0F13801A7F8EE1007F15C
:1047F000EC03921E23F8021952B223F80219012A7F
:10480000F7DA9F2804BF9E20A4F8EE005FF0760040
:1048100004F1EC01B1F900209F2A04BF9E220A8016
:1048200031F9022C401E9F2A04BF9E2221F8022C3F
:10483000401E091F40B20128ECDA89F8460AB9F98E
:10484000660A602809DBB9F9680A602805DA0120E0
:10485000DFF8341C89F8440A087001B0BDE8F08F15
:10486000E410FF1F9C83FF1FE624FF1F7386FF1FBA
:104870000000EE42AC82FF1F4C83FF1F3C84FF1FF1
:104880006A86FF1F2DE9F04FDFF8009CB9F86A0A2D
:10489000B9F89E14A9F86C0A81B0B9F88E05401ACF
:1048A000A9F86A0A99F8450A012804BF99F9440A47
:1048B000012823D1B9F94A0A1A28A2BFDFF8D01B70
:1048C00031F91010152919DBDFF8C81BB1F90010F8
:1048D0000C31814212DA8A2005F049FE012802BF1C
:1048E000DFF8B40B0078012808D1002089F8450AC8
:1048F000022089F8440A01B0BDE8F08F99F8450A12
:10490000012804BF99F9441A022940F0E1820020ED
:1049100089F8450A6920DFF878AB9F210AF2D202B4
:10492000B2F900308B42B8BF1946B2F90230401CD0
:104930008B42C8BF0B46B2F90410401C9942C8BF55
:104940001946401C00B202F206027828E8DB11B9D1
:10495000032089F8440A772089F8460A0AF2EE0013
:1049600002E0491E89F8461A30F9021921B199F975
:10497000461A0129BFF6F5AF99F9460A01463AF9F8
:1049800011202AB90129A4BF401E89F8460AF3DA8A
:10499000801F0128C0F2B8808F1F3FB20F2FA4BF25
:1049A000B9F94A6A1A2EC0F2B0803AF916003AF9FB
:1049B0001710884280F2A980BAF9EE00411A04BFAC
:1049C000401CAAF8EE00BAF9EE803AF81700A8EBFE
:1049D000000004B2002C7AD0C7F1770005F0D8FFB0
:1049E00005468B46204605F0D3FF02460B46284677
:1049F000594606F0FDF806F0B3F80446404605F0C7
:104A00000DFE214605F016FF0146DFF8900A05F07D
:104A10009DFE80462046002106F00EFA57D07625EE
:104A2000762F54DAC7F1760000900AF1EC0B10F003
:104A300003070FD028B205F0F1FD414605F086FED0
:104A4000214605F005FE05F0C7FD6D1E2BF8020995
:104A50007F1EEFD10098870839D028B205F0DEFD1F
:104A6000414605F073FE214605F0F2FD05F0B4FD68
:104A70002BF802096D1E28B205F0D0FD414605F065
:104A800065FE214605F0E4FD05F0A6FD2BF80209C0
:104A90006D1E28B205F0C2FD414605F057FE2146C5
:104AA00005F0D6FD05F098FD2BF802096D1E28B221
:104AB00005F0B4FD414605F049FE214605F0C8FD6C
:104AC00005F08AFD6D1E2BF802097F1EC5D1B9F8CD
:104AD0004A0A40B25FEA000100F16381DFF8C029B1
:104AE00002EB400209EB46010AEB4603B1F95249D9
:104AF0005E8804EBD474401E06EB640440B222F8D6
:104B000002490028F2D54CE10027B9F94A6A3AF97E
:104B100017003AF91610884280F2B28401F0DEF9EB
:104B200099F9470A0B2873DB99F9481A0A29BEBF7D
:104B300009EB4000B0F9F80E6E2869DAB9F8580AA6
:104B4000411E49B209EB410000F60472DFF8440946
:104B5000B0F9000018E0491E4BB283421EDB32F967
:104B60000239A02B17D1491E4BB2834216DB32F912
:104B70000239A02B0FD1491E4BB283420EDB32F912
:104B80000239A02B07D1491E4BB2834206DB32F912
:104B90000239A02BDFD049B2A9F85E1AB9F95E1A22
:104BA0004AB209EB420303F6047318E0521E57B2EF
:104BB00087421FDB33F90279A02F17D0521E57B25C
:104BC000874217DB33F90279A02F0FD0521E57B25C
:104BD00087420FDB33F90279A02F07D0521E57B25C
:104BE000874207DB33F90279A02FDFD152B2531C81
:104BF000A9F8603A89F8462A801DB9F9562A8242F6
:104C000006DBB9F8600A89F8471A081A89F8480AD1
:104C100099F9470A0B28A4BF99F9482A0A2AC0F231
:104C20002F8409EB4003B3F9F87E6E2F80F22884BD
:104C3000821A074690420BDB0AEB400103F604732D
:104C400033F8024921F802497F1E7FB29742F7DA12
:104C5000871F3FB2BAF9EE003AF91710411A04BFA4
:104C6000401CAAF8EE00BAF9EE803AF81700A8EB5B
:104C7000000004B2002C7AD0C7F1770005F088FE5E
:104C800005468B46204605F083FE02460B46284625
:104C9000594605F0ADFF05F063FF0446404605F0B8
:104CA000BDFC214605F0C6FD0146DFF8F00705F022
:104CB0004DFD80462046002106F0BEF857D07625EF
:104CC000762F54DAC7F1760000900AF1EC0B10F061
:104CD00003070FD028B205F0A1FC414605F036FDD0
:104CE000214605F0B5FC05F077FC6D1E2BF8020996
:104CF0007F1EEFD10098870839D028B205F08EFCCE
:104D0000414605F023FD214605F0A2FC05F064FCB8
:104D10002BF802096D1E28B205F080FC414605F013
:104D200015FD214605F094FC05F056FC2BF8020910
:104D30006D1E28B205F072FC414605F007FD2146C4
:104D400005F086FC05F048FC2BF802096D1E28B220
:104D500005F064FC414605F0F9FC214605F078FCBD
:104D600005F03AFC6D1E2BF802097F1EC5D1B9F87B
:104D70004A0A40B2010014D4DFF8242702EB4002B3
:104D800009EB46010AEB4603B1F952495E8804EB90
:104D9000D474401E06EB640440B222F80249002895
:104DA000F2D589F8460AB9F94A6ADFF8F476B7F914
:104DB000EE0037F91610411A04BF401CA7F8EE00A8
:104DC000B7F9EE5037F81600281A04B2002C00F09C
:104DD0005783C6F1770005F0DBFD81468A46204601
:104DE00005F0D6FD02460B464846514605F000FF49
:104DF00005F0B6FE8246284605F010FC514605F047
:104E000019FD0146DFF8940605F0A0FC0546504662
:104E1000002106F011F800F033837624762E80F21C
:104E20002F83C6F1760607F1EC0916F003070FD0C1
:104E300020B205F0F3FB294605F088FC514605F049
:104E400007FC05F0C9FB641E29F802097F1EEFD19B
:104E5000B60800F0158320B205F0E0FB294605F006
:104E600075FC514605F0F4FB05F0B6FB29F8020984
:104E7000671E38B205F0D2FB294605F067FC5146A3
:104E800005F0E6FB05F0A8FB29F802097F1E38B201
:104E900005F0C4FB294605F059FC514605F0D8FB46
:104EA00005F09AFB29F802097F1E38B205F0B6FB1F
:104EB000294605F04BFC514605F0CAFB05F08CFB7A
:104EC0007C1E29F80209761EC5D101B0BDE8F08F1D
:104ED000012854D150210022DFF8C835B3F9004031
:104EE000A242B8BF2246B3F90240491CA242B8BF51
:104EF0002246B3F90440491CA242B8BF2246B3F986
:104F00000640491CA242B8BF2246491C083309B2D8
:104F10007829E3DB9ABBDFF8903550215FF09F02E0
:104F2000B3F900409442B8BF2246B3F902A0491C2D
:104F30009245C8BF9246B3F90460491C5645C8BFA4
:104F40005646B3F90620491CB242C8BF3246491C36
:104F5000083309B27829E3DB9F2A04BF99F9441A80
:104F600001290CD1DFF84415097841B9002089F8EE
:104F7000450A032089F8440A01B0BDE8F08F0128F2
:104F800004BF99F9441A032940F03782002089F8B8
:104F9000450A5020DFF8F8A45FF09F010AF1A00253
:104FA000B2F900308B42B8BF1946B2F90230401C4A
:104FB0008B42C8BF0B46B2F90460401C9E42C8BF7A
:104FC0001E46B2F90610401CB142C8BF3146401C13
:104FD000083200B27828E3DB11B1042089F8440AD2
:104FE000772089F8460A0AF2EE0002E0491E89F8A5
:104FF000461A30F9021919B199F9461A0129F5DA58
:1050000099F9460A01463AF911202AB90129A4BFA3
:10501000401E89F8460AF3DAC01F0128C0F2AF80AB
:10502000CF1F3FB2082FA4BF3AF917001428C0F2CF
:10503000A780AAF8EE003E463AF91620811A04BF6E
:10504000401CAAF8EE00BAF9EE703AF81600381AC9
:1050500005B2002D79D0C6F1770005F099FC8046A5
:105060000C46284605F094FC02460B464046214675
:1050700005F0BEFD05F074FD8046384605F0CEFA19
:10508000414605F0D7FB0146DFF8100405F05EFB52
:1050900007464046002105F0CFFE56D07624762EF6
:1050A00053DAC6F176050AF1EC0615F0030B10D0C1
:1050B00020B205F0B3FA394605F048FB414605F049
:1050C000C7FA05F089FA641E26F80209BBF1010B44
:1050D000EED1AD0839D020B205F0A0FA394605F07E
:1050E00035FB414605F0B4FA05F076FA26F80209D8
:1050F000641E20B205F092FA394605F027FB4146BE
:1051000005F0A6FA05F068FA26F80209641E20B236
:1051100005F084FA394605F019FB414605F098FA86
:1051200005F05AFA26F80209641E20B205F076FA54
:10513000394605F00BFB414605F08AFA05F04CFABA
:10514000641E26F802096D1EC5D1BAF8EE00D44FD0
:10515000762189F8461A2830A7F8EE0007F1EC010D
:1051600021F8020921F8020999F8462A921E89F8C5
:10517000462A52B2012AF3DA01B0BDE8F08F0027C7
:105180003AF91700142880F27B8100F0A7FE99F904
:10519000470A0B286CDB99F9480A0A2868DAB9F83B
:1051A000580A411E49B209EB410000F60472B948A1
:1051B000B0F9000018E0491E4BB283421EDB32F901
:1051C0000239A02B17D1491E4BB2834216DB32F9AC
:1051D0000239A02B0FD1491E4BB283420EDB32F9AC
:1051E0000239A02B07D1491E4BB2834206DB32F9AC
:1051F0000239A02BDFD049B2A9F85E1AB9F95E1ABC
:105200004AB209EB420303F6047318E0521E56B289
:1052100086421FDB33F90269A02E17D0521E56B208
:10522000864217DB33F90269A02E0FD0521E56B208
:1052300086420FDB33F90269A02E07D0521E56B208
:10524000864207DB33F90269A02EDFD152B2531C2C
:10525000A9F8603A89F8462A801DB9F9562A82428F
:1052600006DBB9F8600A89F8471A081A89F8480A6B
:1052700099F9470A0B28A4BF99F9482A0A2AC0F2CB
:10528000FF80821A03460AEB400690420CDB09EBD2
:105290004001374601F6047131F8024927F8024906
:1052A0005B1E5BB29342F7DA36F9061CAAF8EE10E1
:1052B000C61E36B23AF91600081A04BF481CAAF8EE
:1052C000EE00BAF9EE703AF81600381A05B2002D61
:1052D00078D0C6F1770005F05BFB80460C46284687
:1052E00005F056FB02460B464046214605F080FC81
:1052F00005F036FC8046384605F090F9414605F049
:1053000099FA0146654805F021FA07464046002112
:1053100005F092FD56D07624762E53DAC6F1760546
:105320000AF1EC0615F0030B10D020B205F076F967
:10533000394605F00BFA414605F08AF905F04CF9BB
:10534000641E26F80209BBF1010BEED1AD0839D07D
:1053500020B205F063F9394605F0F8F9414605F049
:1053600077F905F039F926F80209641E20B205F034
:1053700055F9394605F0EAF9414605F069F905F0B5
:105380002BF926F80209641E20B205F047F93946C8
:1053900005F0DCF9414605F05BF905F01DF926F84A
:1053A0000209641E20B205F039F9394605F0CEF93C
:1053B000414605F04DF905F00FF9641E26F8020983
:1053C0006D1EC5D1BAF8EE00354F762189F8461A20
:1053D00010F12800A7F8EE0007F1EC0121F802090E
:1053E00021F8020999F8462A921E89F8462A52B2F3
:1053F000012AF3DA01B0BDE8F08F012804BF99F962
:10540000440A04283CD1002089F8450A7622204C21
:10541000234FB4F9EE0000F13801A7F8EE1007F1C0
:10542000EC03921E23F8021952B223F80219012A42
:10543000F7DA10B90120A4F8EE00762004F1EC01AF
:10544000B1F900200AB901220A80401E31F9022C6C
:1054500012B9012221F8022C401E091F40B2012876
:10546000EEDA89F8460AB9F96A0A602808DBB9F960
:105470006C0A602804DA0120034989F8440A08709C
:1054800001B0BDE8F08F00007686FF1FE410FF1F1B
:10549000AC82FF1FE624FF1F7386FF1F0000EE4251
:1054A0009C83FF1F4C83FF1F3C84FF1F6A86FF1FE6
:1054B000DFF8741B91F8450A012800D070472DE9E8
:1054C000F04FB1F94A0A81B0002800F02F82B1F9FB
:1054D0004C3AA0F114029342A4BF00F114029A4284
:1054E00080F22482DFF8444B34F910209F2A02BF57
:1054F00004EB4002B2F904309F2B04BF32F9042CB4
:105500009F2A40F01382DFF8282BB2F9002077237E
:10551000782A42DA01F29E4401F6027501F28E56B3
:10552000DFF8107BB4F900C002E000BF0CF1010C01
:10553000B6F900E00FFA8CFCF44523DAE6460EEBF0
:1055400007081EF807A098F801B0A8F102091BEBA4
:105550000A0A01BF18F802AC99F801B0DA44BAF5AA
:10556000FF7F0DD018F802AC99F8019019EB0A09E9
:1055700002BF1EF807E098F8018018EB0E0ED5D197
:10558000A5F800C0A1F850CA5B1EA03FB61EAD1E14
:10559000A41E4FFA83FC9445C4DA772301F6027403
:1055A00000E05B1E5DB295421EDB34F90259A02D6E
:1055B00017D15B1E5DB2954216DB34F90259A02D5E
:1055C0000FD15B1E5DB295420EDB34F90259A02D5E
:1055D00007D15B1E5DB2954206DB34F90259A02D5E
:1055E000DFD05BB2A1F8523AB1F9523A5CB201EBAA
:1055F000440505F6146500E0641E66B296421FDBA2
:1056000035F90269A02E17D0641E66B2964217DBE8
:1056100035F90269A02E0FD0641E66B296420FDBE8
:1056200035F90269A02E07D0641E66B2964207DBE8
:1056300035F90269A02EDFD164B2641CA1F8544A86
:10564000941D0094A34206DBB1F8544A81F8473A0E
:105650001C1B81F8484A7723782A42DA01F28E54DB
:1056600001F6F27501F29E46DFF8C879B4F900C080
:1056700002E000BFACF1010CB6F900E00FFA8CFCBF
:10568000E64523DAE6460EEB07081EF807A018F8F1
:1056900001BC08F101091BEB0A0A01BF99F801A03E
:1056A00098F801B0DA44BAF5FF7F0DD099F801906F
:1056B00098F801A01AEB090902BF1EF807E018F8D4
:1056C000018C18EB0E0ED5D1A5F800C0A1F850CA78
:1056D0005B1EA03FB61EAD1EA41E4FFA83FC944570
:1056E000C4DA772301F6F27400E05B1E5DB29542E6
:1056F0001EDB34F90259A02D17D15B1E5DB2954215
:1057000016DB34F90259A02D0FD15B1E5DB2954214
:105710000EDB34F90259A02D07D15B1E5DB2954214
:1057200006DB34F90259A02DDFD05BB2A1F8563A5E
:10573000B1F9563A5CB201EB440505F6047500E098
:10574000641E66B296421FDB35F90269A02E17D09F
:10575000641E66B2964217DB35F90269A02E0FD09F
:10576000641E66B296420FDB35F90269A02E07D09F
:10577000641E66B2964207DB35F90269A02EDFD1BE
:1057800064B2621CA1F8582A81F8464A009A9342F2
:1057900006DBB1F8582A81F8473A9A1A81F8482A64
:1057A00091F9472A002A00F0F082B1F94A4A1346DB
:1057B000A34280F2EA8291F9484A032CC0F2E582C2
:1057C000002581F8455A161B1546DFF8E84AB24213
:1057D000C0F20E8004EB420701EB420202F60472B3
:1057E00032F802C927F802C96D1E6DB2B542F7DA68
:1057F00081F8465A9D1EB1F94A6A34F910102DB24B
:105800002F4634F917208A1A04BF491C24F81010B7
:1058100034F9108034F81710A8EB01010FFA81F960
:10582000B9F1000F00F0B182C01B05F0B1F882465B
:105830008B46484605F0ACF802460B4650465946A2
:1058400005F0D6F905F08CF98146304604F0E6FE05
:105850008246404604F0E2FE494604F0EBFF014672
:10586000504604F073FF80464846002105F0E4FAF4
:1058700000F08B82701E00B20646854280F285825F
:10588000C51B04EB460415F003070FD030B204F03B
:10589000C5FE414604F05AFF494604F0D9FE04F023
:1058A0009BFE761E24F802097F1EEFD1AD0800F0A2
:1058B0006C8230B204F0B2FE414604F047FF494624
:1058C00004F0C6FE04F088FE24F80209761E30B209
:1058D00004F0A4FE414604F039FF494604F0B8FE46
:1058E00004F07AFE24F80209761E30B204F096FE27
:1058F000414604F02BFF494604F0AAFE04F06CFE7A
:1059000024F80209761E30B204F088FE414604F005
:105910001DFF494604F09CFE04F05EFE761E24F84E
:1059200002096D1EC5D101B0BDE8F08FB1F94C0A76
:10593000002800F02A82B1F94C3AB1F94A0AA3F1E1
:1059400014029042A4BF03F11402824280F21D822D
:10595000DFF8604934F91300002802BF04EB43006C
:10596000B0F90420002A04BF30F9040C002840F0EC
:105970000C82DFF8BC26B2F900207720782A42DAC0
:1059800001F29E4401F6027501F28E56DFF8A4760C
:10599000B4F900C002E000BF0CF1010CB6F900E060
:1059A0000FFA8CFCF44523DAE6460EEB07081EF8E6
:1059B00007A098F801B0A8F102091BEB0A0A01BF81
:1059C00018F802AC99F801B0DA44BAF5FF7F0DD0AF
:1059D00018F802AC99F8019019EB0A0902BF1EF8F9
:1059E00007E098F8018018EB0E0ED5D1A5F800C09D
:1059F000A1F850CA401EA03FB61EAD1EA41E4FFA0D
:105A000080FC9445C4DA772001F6027400E0401E61
:105A100045B295421EDB34F90259A02D17D1401E24
:105A200045B2954216DB34F90259A02D0FD1401E24
:105A300045B295420EDB34F90259A02D07D1401E24
:105A400045B2954206DB34F90259A02DDFD040B2B1
:105A5000A1F8520AB1F9520A44B201EB440505F625
:105A6000146500E0641E66B296421FDB35F90269D8
:105A7000A02E17D0641E66B2964217DB35F9026974
:105A8000A02E0FD0641E66B296420FDB35F9026974
:105A9000A02E07D0641E66B2964207DB35F9026974
:105AA000A02EDFD164B2641CA1F8544A941D009466
:105AB000A04206DBB1F8544A81F8470A041B81F87A
:105AC000484A7720782A42DA01F28E5401F6F275BC
:105AD00001F29E46DFF85C75B4F900C002E000BF39
:105AE000ACF1010CB6F900E00FFA8CFCE64523DAC4
:105AF000E6460EEB07081EF807A018F801BC08F1EF
:105B000001091BEB0A0A01BF99F801A098F801B03E
:105B1000DA44BAF5FF7F0DD099F8019098F801A00A
:105B20001AEB090902BF1EF807E018F8018C18EB00
:105B30000E0ED5D1A5F800C0A1F850CA401EA03F56
:105B4000B61EAD1EA41E4FFA80FC9445C4DA772021
:105B500001F6F27400E0401E45B295421EDB34F9B6
:105B60000259A02D17D1401E45B2954216DB34F9DB
:105B70000259A02D0FD1401E45B295420EDB34F9DB
:105B80000259A02D07D1401E45B2954206DB34F9DB
:105B90000259A02DDFD040B2A1F8560AB1F9560A39
:105BA00044B201EB440505F6047500E0641E66B2DC
:105BB00096421FDB35F90269A02E17D0641E66B22B
:105BC000964217DB35F90269A02E0FD0641E66B22B
:105BD00096420FDB35F90269A02E07D0641E66B22B
:105BE000964207DB35F90269A02EDFD164B2621C50
:105BF000A1F8582A81F8464A009A904206DBB1F88B
:105C0000582A81F8470A821A81F8482A91F9470AE6
:105C1000002800F0BA80B1F94C4A0246A24280F254
:105C2000B48091F9484A032CC0F2AF80002581F876
:105C3000455A061B0546DFF8F443B042C0F20E8019
:105C400004EB400701EB400000F6146030F802C995
:105C500027F802C96D1E6DB2B542F7DA81F8465ACF
:105C6000951EB1F94C6A34F913002DB22F4634F960
:105C70001710411A04BF401C24F8130034F9138094
:105C800034F81700A8EB00000FFA80F9B9F1000F03
:105C90007BD0D81B04F07CFE82468B46484604F03D
:105CA00077FE02460B465046594604F0A1FF04F029
:105CB00057FF8146304604F0B1FC8246404604F06E
:105CC000ADFC494604F0B6FD0146504604F03EFDE9
:105CD00080464846002105F0AFF856D0701E00B24D
:105CE0000646854251DAC51B04EB460415F003074E
:105CF0000FD030B204F092FC414604F027FD494633
:105D000004F0A6FC04F068FC761E24F802097F1E4D
:105D1000EFD1AD0839D030B204F080FC414604F038
:105D200015FD494604F094FC04F056FC24F80209E1
:105D3000761E30B204F072FC414604F007FD49467D
:105D400004F086FC04F048FC24F80209761E30B208
:105D500004F064FC414604F0F9FC494604F078FC88
:105D600004F03AFC24F80209761E30B204F056FC26
:105D7000414604F0EBFC494604F06AFC04F02CFCBC
:105D8000761E24F802096D1EC5D101B0BDE8F08F62
:105D90002DE9F047A648A449B0F9000077227828F9
:105DA0003BDA01F29E4301F6027401F28E55A14ED8
:105DB000B3F9007000E07F1CB5F900C03FB2674541
:105DC00021DA07EB060E17F806909EF801A0AEF157
:105DD00002081AEB090901BF1EF8029C98F801A0FD
:105DE000D144B9F5FF7F0DD01EF8029C98F80180D0
:105DF00018EB090802BF17F806C09EF801E01EEB79
:105E00000C0CD8D12780A1F8507A521EA03EAD1EAE
:105E1000A41E9B1E57B28742CADA772201F602738C
:105E200018E0521E54B284421EDB33F90249A02C02
:105E300017D1521E54B2844216DB33F90249A02C0A
:105E40000FD1521E54B284420EDB33F90249A02C0A
:105E500007D1521E54B2844206DB33F90249A02C0A
:105E6000DFD052B2A1F8522AB1F9522A53B201EB53
:105E7000430404F6146418E05B1E5DB285421FDB28
:105E800034F90259A02D17D05B1E5DB2854217DB95
